S00E00006944726976652E73726563B3
S11300000C942A000C947B000C9447000C94470039
S11300100C9447000C9447000C9447000C94470040
S11300200C9447000C9447000C9447000C94470030
S11300300C9447000C9447000C9447000C94470020
S11300400C9447000C9447000C9447000C94470010
S11300500C94470011241FBECFE5D8E0DEBFCDBF0E
S113006010E0A0E6B0E0E2EDF1E002C005900D92F0
S1130070A036B107D9F720E0A0E6B0E001C01D9298
S1130080A436B207E1F70E94A6000C94E7000C9492
S1130090000041E060E08AE390E00E94AB0041E0B0
S11300A061E08AE390E00E94AB0041E062E08AE311
S11300B090E00E94AB0041E063E08AE390E00E949C
S11300C0AB00089541E060E08BE390E00E94C9003A
S11300D040E061E08BE390E00E94C90040E062E010
S11300E08BE390E00E94C90041E063E08BE390E081
S11300F00E94C90008951F920F920FB60F92112407
S11301008F939F938091600090916100892B51F4AB
S11301108EB581608EBD81E090E090936100809304
S113012060000DC01EBC8CB59DB590936300809398
S113013062001DBC1CBC10926100109260009F9173
S11301408F910F900FBE0F901F9018950E94490039
S11301500E946200FDCF442319F0413071F00895EC
S1130160FC01408121E030E002C0220F331F6A9578
S1130170E2F72095242320830895FC01408121E0A7
S113018030E002C0220F331F6A95E2F7242B20834C
S11301900895442319F0413071F00895FC01408121
S11301A021E030E002C0220F331F6A95E2F7209568
S11301B0242320830895FC01408121E030E002C023
S11301C0220F331F6A95E2F7242B20830895F894B5
S10501D0FFCF5B
S9030000FC
