S00E00006944726976652E73726563B3
S11300000C942A000C94DB000C9447000C944700D9
S11300100C9447000C9447000C9447000C94470040
S11300200C9447000C9447000C9447000C94470030
S11300300C9447000C9447000C9447000C94470020
S11300400C9447000C9447000C9447000C94470010
S11300500C94470011241FBECFE5D8E0DEBFCDBF0E
S113006010E0A0E6B0E0ECEEF9E002C005900D92DD
S1130070A039B107D9F720E0A0E9B0E001C01D9292
S1130080A639B207E1F70E9406010C94F4040C941B
S1130090000041E060E084E390E00E94330141E02D
S11300A061E084E390E00E94330141E062E084E394
S11300B090E00E94330141E063E084E390E00E9419
S11300C03301089541E067E081E390E00E94330149
S11300D08AE690E00E94580283EC99E097BD86BDC1
S11300E0089580E991E09BBD8ABD2FEF8DE399E4EB
S11300F0215080409040E1F700C0000008958FEA4D
S113010090E09BBD8ABD2FEF8DE399E421508040A0
S11301109040E1F700C00000089581E490E09BBDA9
S11301208ABD2FEF8DE399E4215080409040E1F7A0
S113013000C00000089540E00E943301089541E0AA
S113014060E08AE390E00E94330141E060E08BE3E9
S113015090E00E94510163E080E00E94CE0181E0C2
S11301600E94F7018EE790E00E94040241E062E001
S113017084E390E00E94330141E063E084E390E093
S11301800E94330140E062E085E390E00E94510167
S113019040E063E085E390E00E94510141E062E0C9
S11301A084E390E00E94330140E063E084E390E064
S11301B00E94330108951F920F920FB60F921124DB
S11301C08F939F938091900090919100892B51F48B
S11301D08EB581608EBD81E090E090939100809314
S11301E090000DC01EBC8CB59DB590939300809378
S11301F092001DBC1CBC10929100109290009F9123
S11302008F910F900FBE0F901F90189566E081E3B9
S113021090E00E949B000E9462000E949F000E9446
S113022049000E9471002FEF87EA91E62150804037
S11302309040E1F700C000000E947F002FEF87EAA2
S113024091E6215080409040E1F700C000000E94F8
S11302508D002FEF87EA91E6215080409040E1F72E
S113026000C00000DECF442319F0413071F008953E
S1130270FC01408121E030E002C0220F331F6A9567
S1130280E2F72095242320830895FC01408121E096
S113029030E002C0220F331F6A95E2F7242B20833B
S11302A00895442319F0413071F00895FC01408110
S11302B021E030E002C0220F331F6A95E2F7209557
S11302C0242320830895FC01408121E030E002C012
S11302D0220F331F6A95E2F7242B2083089581307F
S11302E0F1F030F0823089F1833009F442C008958E
S11302F035B781E090E0FC0102C0EE0FFF1F6A9564
S1130300E2F72E2F2095232325BF25B702C0880F9F
S1130310991F4A95E2F78095822385BF089535B7E2
S113032081E090E0FC0102C0EE0FFF1F6A95E2F746
S11303302E2F2095232325BF25B702C0880F991F90
S11303404A95E2F7822B85BF089555B781E090E086
S11303509C0102C0220F331F6A95E2F7252B25BFAB
S113036025B702C0880F991F4A95E2F7822B85BFF3
S1130370089555B781E090E09C0102C0220F331F1D
S11303806A95E2F7252B25BF25B702C0880F991F70
S11303904A95E2F78095822385BF0895962F813090
S11303A069F018F0823099F0089541E060E0892FF7
S11303B00E946F018BB780648BBF089543E062E0B5
S11303C0892F0E946F018BB780688BBF08956130BD
S11303D019F0623029F007C084B78F7B84BF03C053
S11303E084B7806484BF8BB780628BBF08958823F1
S11303F019F0813029F008958FB78F778FBF089552
S11304008FB780688FBF0895FC018081882319F01D
S1130410813019F1089513BE8181882319F0883041
S113042041F015C083B783BF99B78381892B89BFF6
S11304300EC083B7886083BF29B79381892F90E06A
S1130440880F991F822B89BF848181508CBF93B7F9
S11304508281892B83BF12BE08951EBC1DBC1CBCA7
S11304608181882319F0883071F01DC08EB58EBD4E
S113047029B79381892F90E0880F991F880F991FBE
S1130480822B89BF10C08EB588608EBD29B7938139
S113049030E1939FC0011124822B89BF848195810F
S11304A001979BBD8ABD9EB58281892B8EBD08951F
S11304B0CF92DF92EF92FF920F931F93CF93DF932C
S11304C0FC018081882319F0813099F1D9C013BED1
S11304D012BE93B7338181812281832B822B892B96
S11304E083BF82818032B1F0803309F0C9C0808536
S11304F0918524E630E0281B390B369527953695EF
S11305002795ABE7B4E10E94E5049695879581951C
S11305108CBFB6C0208531853695279536952795AD
S1130520ABE7B4E10E94E5049695879581958CBF6D
S1130530A7C01FBC1EBC1DBC1CBC8181803479F0CB
S11305408834C9F48FB58E7F8FBD8FB582608FBD1F
S11305508EB588608EBD8EB580618EBD0CC08FB5A2
S113056081608FBD8FB582608FBD8EB5877F8EBD54
S11305708EB580618EBDEF0106811781648175811E
S113058080E090E00E94EA039B01AC0160E070E02F
S11305908AE794E40E9449036B017C01B80180E07E
S11305A090E00E94EA03A70196010E9478049B014F
S11305B0AC0160E074E284E79BE40E9449030E947A
S11305C0BB0361507109709395006093940077BDEB
S11305D066BD8A81803261F1803309F04DC08FB5E8
S11305E080648FBD8FB580688FBD8885998564E6EA
S11305F070E0681B790B80E090E00E94EA0320E041
S113060030E048EC52E40E9449036B017C016091A4
S113061094007091950080E090E00E94EA03A701A5
S113062096010E9478040E94BB037BBD6ABD24C06E
S11306308FB58F7B8FBD8FB580688FBD68857985B9
S113064080E090E00E94EA0320E030E048EC52E4CD
S11306500E9449036B017C016091940070919500A4
S113066080E090E00E94EA03A70196010E947804CA
S11306700E94BB037BBD6ABD9EB58B81892B8EBD59
S1130680DF91CF911F910F91FF90EF90DF90CF906A
S113069008950E945D030C943E040E94370458F0B0
S11306A00E94300440F029F45F3F29F00C942704A1
S11306B051110C9472040C942D040E944F0468F39D
S11306C09923B1F3552391F3951B550BBB27AA2707
S11306D062177307840738F09F5F5F4F220F331F41
S11306E0441FAA1FA9F335D00E2E3AF0E0E832D009
S11306F091505040E695001CCAF72BD0FE2F29D00C
S1130700660F771F881FBB1F261737074807AB07DD
S1130710B0E809F0BB0B802DBF01FF2793585F4F52
S11307203AF09E3F510578F00C9427040C9472041F
S11307305F3FE4F3983ED4F3869577956795B79534
S1130740F7959F5FC9F7880F911D9695879597F93F
S11307500895E1E0660F771F881FBB1F62177307B8
S11307608407BA0720F0621B730B840BBA0BEE1FCD
S113077088F7E09508950E94570488F09F5798F0F1
S1130780B92F9927B751B0F0E1F0660F771F881F92
S1130790991F1AF0BA95C9F714C0B13091F00E94AC
S11307A07104B1E008950C947104672F782F8827A1
S11307B0B85F39F0B93FCCF3869577956795B395D3
S11307C0D9F73EF490958095709561957F4F8F4F42
S11307D09F4F0895E89409C097FB3EF49095809547
S11307E0709561957F4F8F4F9F4F9923A9F0F92FF3
S11307F096E9BB279395F695879577956795B79571
S1130800F111F8CFFAF4BB0F11F460FF1BC06F5F56
S11308107F4F8F4F9F4F16C0882311F096E911C068
S1130820772321F09EE8872F762F05C0662371F089
S113083096E8862F70E060E02AF09A95660F771F9D
S1130840881FDAF7880F9695879597F9089597F991
S11308509F6780E870E060E008959FEF80EC089562
S113086000240A941616170618060906089500248B
S11308700A9412161306140605060895092E039405
S1130880000C11F4882352F0BB0F40F4BF2B11F479
S113089060FF04C06F5F7F4F8F4F9F4F089557FDD8
S11308A09058440F551F59F05F3F71F04795880FDA
S11308B097FB991F61F09F3F79F087950895121671
S11308C013061406551FF2CF4695F1DF08C016161D
S11308D017061806991FF1CF8695710561050894CE
S11308E00895E894BB2766277727CB0197F90895E5
S11308F00E948B040C943E040E94300438F00E9441
S1130900370420F0952311F00C9427040C942D0443
S113091011240C9472040E944F0470F3959FC1F348
S1130920950F50E0551F629FF001729FBB27F00D99
S1130930B11D639FAA27F00DB11DAA1F649F6627EE
S1130940B00DA11D661F829F2227B00DA11D621F3D
S1130950739FB00DA11D621F839FA00D611D221FF7
S1130960749F3327A00D611D231F849F600D211DDB
S1130970822F762F6A2F11249F5750409AF0F1F05E
S113098088234AF0EE0FFF1FBB1F661F771F881FC7
S113099091505040A9F79E3F510580F00C942704D4
S11309A00C9472045F3FE4F3983ED4F386957795F4
S11309B06795B795F795E7959F5FC1F7FE2B880F6D
S11309C0911D9695879597F90895A29FB001B39FBD
S11309D0C001A39F700D811D1124911DB29F700D44
S10F09E0811D1124911D0895F894FFCF8F
S11309EC00483004010000013200014830030100CA
S11309FC40003200024830050100000450000000A1
S1130A0C0101000001080501093D02000401000078
S9030000FC
