S00E00006944726976652E73726563B3
S11300000C942A000C949D010C9447000C94470016
S11300100C9447000C9447000C9447000C94470040
S11300200C9447000C9447000C9447000C94470030
S11300300C9447000C9447000C9447000C94470020
S11300400C9447000C9447000C9447000C94470010
S11300500C94470011241FBECFE5D8E0DEBFCDBF0E
S113006010E0A0E6B0E0E8EDF6E002C005900D92E5
S1130070A237B107D9F720E0A2E7B0E001C01D9292
S1130080A937B207E1F70E94C8010C946A030C94E3
S1130090000041E060E084E390E00E94080241E057
S11300A061E084E390E00E94080241E062E084E3BE
S11300B090E00E94080241E063E084E390E00E9443
S11300C00802089541E060E085E390E00E943B026D
S11300D040E061E085E390E00E943B0240E062E0A2
S11300E085E390E00E943B0241E063E085E390E019
S11300F00E943B02089540E060E085E390E00E94A6
S11301003B0240E063E085E390E00E943B0241E073
S113011061E085E390E00E943B0241E062E085E318
S113012090E00E943B022FEF89E698E12150804045
S11301309040E1F700C0000040E061E085E390E01A
S11301400E943B0240E062E085E390E00E943B02B3
S1130150089541E061E085E390E00E943B0241E0C4
S113016063E085E390E00E943B022FEF87EA91E68B
S1130170215080409040E1F700C0000040E061E081
S113018085E390E00E943B0240E063E085E390E079
S11301900E943B02089541E060E085E390E00E9404
S11301A03B0241E062E085E390E00E943B022FEFD6
S11301B087EA91E6215080409040E1F700C00000BA
S11301C040E060E085E390E00E943B0240E062E0B2
S11301D085E390E00E943B02089541E00E940802FA
S11301E00895CF93C42F41E00E943B02CC2329F011
S11301F0CA3551F0C63AB1F40EC08FE697E10197C3
S1130200F1F700C0000014C08FE39FE10197F1F7FC
S113021000C000000DC08FE99FE00197F1F700C016
S1130220000006C08FE39FE10197F1F700C00000D2
S1130230CF91089540E00E94080208951F93CF9340
S1130240DF93EC01162F0E94260290917200891709
S113025091F02FEF89EF90E0215080409040E1F73A
S113026000C00000612FCE010E942602809372001C
S1130270813019F403C080E001C080E0DF91CF91A8
S11302801F91089541E060E08AE390E00E94080233
S113029041E060E08BE390E00E943B0263E080E099
S11302A00E94B80281E00E94E10280E690E00E9490
S11302B0EE0241E062E084E390E00E94080241E043
S11302C063E084E390E00E94080240E062E085E39A
S11302D090E00E943B0240E063E085E390E00E94EE
S11302E03B0241E062E084E390E00E94080240E0C7
S11302F063E084E390E00E940802089541E062E034
S113030085E390E00E943B0280E48A95F1F740E0A7
S113031062E085E390E00E943B0280E48A95F1F775
S113032080917700909178006AE370E00E94420324
S11303307093740060937300E1CF1F920F920FB615
S11303400F9211248F939F93809175009091760062
S1130350892B51F48EB581608EBD81E090E090933D
S11303607600809375000DC01EBC8CB59DB590932E
S11303707800809377001DBC1CBC1092760010920C
S113038075009F918F910F900FBE0F901F9018953D
S113039066E081E390E00E941A0167E081E390E067
S11303A00E94ED000E9442010E94490066E080E341
S11303B090E00E941E01813011F0C0E001C0C1E054
S11303C0C13019F54AE567E082E390E00E94F1004C
S11303D00E947E018B0146EA67E082E390E00E947E
S11303E0F1000E947E017B0140E067E082E390E03F
S11303F00E94F1000E151F0518F00E94CB0002C0E8
S11304000E94A9000E946200DBCF0E947B00D8CF2B
S1130410442319F0413071F00895FC01408121E03A
S113042030E002C0220F331F6A95E2F7209524239F
S113043020830895FC01408121E030E002C0220FB6
S1130440331F6A95E2F7242B20830895FC01408131
S113045081E090E09C01062E02C0220F331F0A9413
S1130460E2F7842F90E08223932302C09695879528
S11304706A95E2F70895442319F0413071F0089524
S1130480FC01408121E030E002C0220F331F6A9555
S1130490E2F72095242320830895FC01408121E084
S11304A030E002C0220F331F6A95E2F7242B208329
S11304B008958130F1F030F0823089F1833009F40D
S11304C042C0089535B781E090E0FC0102C0EE0F10
S11304D0FF1F6A95E2F72E2F2095232325BF25B70A
S11304E002C0880F991F4A95E2F78095822385BF41
S11304F0089535B781E090E0FC0102C0EE0FFF1FC4
S11305006A95E2F72E2F2095232325BF25B702C035
S1130510880F991F4A95E2F7822B85BF089555B736
S113052081E090E09C0102C0220F331F6A95E2F73C
S1130530252B25BF25B702C0880F991F4A95E2F7DE
S1130540822B85BF089555B781E090E09C0102C0DD
S1130550220F331F6A95E2F7252B25BF25B702C06A
S1130560880F991F4A95E2F78095822385BF0895E5
S1130570962F813069F018F0823099F0089541E0A7
S113058060E0892F0E9459028BB780648BBF089565
S113059043E062E0892F0E9459028BB780688BBFC9
S11305A00895613019F0623029F007C084B78F7B59
S11305B084BF03C084B7806484BF8BB780628BBF61
S11305C00895882319F0813029F008958FB78F7723
S11305D08FBF08958FB780688FBF0895FC01808115
S11305E0882319F0813019F1089513BE818188237D
S11305F019F0883041F015C083B783BF99B7838160
S1130600892B89BF0EC083B7886083BF29B79381C4
S1130610892F90E0880F991F822B89BF8481815094
S11306208CBF93B78281892B83BF12BE08951EBCF1
S11306301DBC1CBC8181882319F0883071F01DC059
S11306408EB58EBD29B79381892F90E0880F991FAD
S1130650880F991F822B89BF10C08EB588608EBD0C
S113066029B7938130E1939FC0011124822B89BF64
S11306708481958101979BBD8ABD9EB58281892B1A
S11306808EBD089597FB072E16F4009407D077FDCE
S113069009D00E94560307FC05D03EF4909581953D
S11306A09F4F0895709561957F4F0895AA1BBB1BBA
S11306B051E107C0AA1FBB1FA617B70710F0A61B5E
S11306C0B70B881F991F5A95A9F780959095BC017F
S10B06D0CD010895F894FFCF59
S11306D800000101000001080501093D02000401B0
S10506E800000C
S9030000FC
